{
  "transactions": [
    {
      "hash": "0xbd013eedc0dc8dd02a1a793bc67ed71f987fcdcc0e86ac2e9854999f781ee2b6",
      "transactionType": "CREATE",
      "contractName": "Token0",
      "contractAddress": "0x363Af415717225D28e66Ef4943f35E17283D8726",
      "function": null,
      "arguments": null,
      "transaction": {
        "from": "0xf39Fd6e51aad88F6F4ce6aB8827279cffFb92266",
        "gas": "0xb3a71",
        "value": "0x0",
        "input": "0x608060405234801561000f575f80fd5b50604051806040016040528060068152602001650546f6b656e360d41b815250604051806040016040528060038152602001620544b360ec1b815250816003908161005a91906102a1565b50600461006782826102a1565b50505061009c3261007c6100a160201b60201c565b61008a9060ff16600a610454565b61009790620f4240610466565b6100a6565b610490565b601290565b6001600160a01b0382166100d45760405163ec442f0560e01b81525f60048201526024015b60405180910390fd5b6100df5f83836100e3565b5050565b6001600160a01b03831661010d578060025f828254610102919061047d565b9091555061017d9050565b6001600160a01b0383165f908152602081905260409020548181101561015f5760405163391434e360e21b81526001600160a01b038516600482015260248101829052604481018390526064016100cb565b6001600160a01b0384165f9081526020819052604090209082900390555b6001600160a01b038216610199576002805482900390556101b7565b6001600160a01b0382165f9081526020819052604090208054820190555b816001600160a01b0316836001600160a01b03167fddf252ad1be2c89b69c2b068fc378daa952ba7f163c4a11628f55a4df523b3ef836040516101fc91815260200190565b60405180910390a3505050565b634e487b7160e01b5f52604160045260245ffd5b600181811c9082168061023157607f821691505b60208210810361024f57634e487b7160e01b5f52602260045260245ffd5b50919050565b601f82111561029c57805f5260205f20601f840160051c8101602085101561027a5750805b601f840160051c820191505b81811015610299575f8155600101610286565b50505b505050565b81516001600160401b038111156102ba576102ba610209565b6102ce816102c8845461021d565b84610255565b6020601f821160018114610300575f83156102e95750848201515b5f19600385901b1c1916600184901b178455610299565b5f84815260208120601f198516915b8281101561032f578785015182556020948501946001909201910161030f565b508482101561034c57868401515f19600387901b60f8161c191681555b50505050600190811b01905550565b634e487b7160e01b5f52601160045260245ffd5b6001815b60018411156103aa5780850481111561038e5761038e61035b565b600184161561039c57908102905b60019390931c928002610373565b935093915050565b5f826103c05750600161044e565b816103cc57505f61044e565b81600181146103e257600281146103ec57610408565b600191505061044e565b60ff8411156103fd576103fd61035b565b50506001821b61044e565b5060208310610133831016604e8410600b841016171561042b575081810a61044e565b6104375f19848461036f565b805f190482111561044a5761044a61035b565b0290505b92915050565b5f61045f83836103b2565b9392505050565b808202811582820484141761044e5761044e61035b565b8082018082111561044e5761044e61035b565b6107458061049d5f395ff3fe608060405234801561000f575f80fd5b506004361061009b575f3560e01c806340c10f191161006357806340c10f191461011457806370a082311461012957806395d89b4114610151578063a9059cbb14610159578063dd62ed3e1461016c575f80fd5b806306fdde031461009f578063095ea7b3146100bd57806318160ddd146100e057806323b872dd146100f2578063313ce56714610105575b5f80fd5b6100a76101a4565b6040516100b491906105b5565b60405180910390f35b6100d06100cb366004610605565b610234565b60405190151581526020016100b4565b6002545b6040519081526020016100b4565b6100d061010036600461062d565b61024d565b604051601281526020016100b4565b610127610122366004610605565b610270565b005b6100e4610137366004610667565b6001600160a01b03165f9081526020819052604090205490565b6100a761027e565b6100d0610167366004610605565b61028d565b6100e461017a366004610687565b6001600160a01b039182165f90815260016020908152604080832093909416825291909152205490565b6060600380546101b3906106b8565b80601f01602080910402602001604051908101604052809291908181526020018280546101df906106b8565b801561022a5780601f106102015761010080835404028352916020019161022a565b820191905f5260205f20905b81548152906001019060200180831161020d57829003601f168201915b5050505050905090565b5f3361024181858561029a565b60019150505b92915050565b5f3361025a8582856102ac565b61026585858561032c565b506001949350505050565b61027a8282610389565b5050565b6060600480546101b3906106b8565b5f3361024181858561032c565b6102a783838360016103bd565b505050565b6001600160a01b038381165f908152600160209081526040808320938616835292905220545f198114610326578181101561031857604051637dc7a0d960e11b81526001600160a01b038416600482015260248101829052604481018390526064015b60405180910390fd5b61032684848484035f6103bd565b50505050565b6001600160a01b03831661035557604051634b637e8f60e11b81525f600482015260240161030f565b6001600160a01b03821661037e5760405163ec442f0560e01b81525f600482015260240161030f565b6102a783838361048f565b6001600160a01b0382166103b25760405163ec442f0560e01b81525f600482015260240161030f565b61027a5f838361048f565b6001600160a01b0384166103e65760405163e602df0560e01b81525f600482015260240161030f565b6001600160a01b03831661040f57604051634a1406b160e11b81525f600482015260240161030f565b6001600160a01b038085165f908152600160209081526040808320938716835292905220829055801561032657826001600160a01b0316846001600160a01b03167f8c5be1e5ebec7d5bd14f71427d1e84f3dd0314c0f7b2291e5b200ac8c7c3b9258460405161048191815260200190565b60405180910390a350505050565b6001600160a01b0383166104b9578060025f8282546104ae91906106f0565b909155506105299050565b6001600160a01b0383165f908152602081905260409020548181101561050b5760405163391434e360e21b81526001600160a01b0385166004820152602481018290526044810183905260640161030f565b6001600160a01b0384165f9081526020819052604090209082900390555b6001600160a01b03821661054557600280548290039055610563565b6001600160a01b0382165f9081526020819052604090208054820190555b816001600160a01b0316836001600160a01b03167fddf252ad1be2c89b69c2b068fc378daa952ba7f163c4a11628f55a4df523b3ef836040516105a891815260200190565b60405180910390a3505050565b602081525f82518060208401528060208501604085015e5f604082850101526040601f19601f83011684010191505092915050565b80356001600160a01b0381168114610600575f80fd5b919050565b5f8060408385031215610616575f80fd5b61061f836105ea565b946020939093013593505050565b5f805f6060848603121561063f575f80fd5b610648846105ea565b9250610656602085016105ea565b929592945050506040919091013590565b5f60208284031215610677575f80fd5b610680826105ea565b9392505050565b5f8060408385031215610698575f80fd5b6106a1836105ea565b91506106af602084016105ea565b90509250929050565b600181811c908216806106cc57607f821691505b6020821081036106ea57634e487b7160e01b5f52602260045260245ffd5b50919050565b8082018082111561024757634e487b7160e01b5f52601160045260245ffdfea26469706673582212206ee541bb85c4da51a57910da362125eedc61293fdd6bc1b490a9f78015b06c1a64736f6c634300081a0033",
        "nonce": "0x130f",
        "chainId": "0x14a34"
      },
      "additionalContracts": [],
      "isFixedGasLimit": false
    },
    {
      "hash": "0x23381ecbdbdf9dc6b818a5b06f61c5732a92f20e6ff1db6eedb3ec3bd1c07aae",
      "transactionType": "CREATE",
      "contractName": "Token1",
      "contractAddress": "0xa9E674B9eF4F9162fb2A452548c1c7775bc357bf",
      "function": null,
      "arguments": null,
      "transaction": {
        "from": "0xf39Fd6e51aad88F6F4ce6aB8827279cffFb92266",
        "gas": "0xb3a71",
        "value": "0x0",
        "input": "0x608060405234801561000f575f80fd5b5060405180604001604052806006815260200165546f6b656e3160d01b81525060405180604001604052806003815260200162544b3160e81b815250816003908161005a91906102a1565b50600461006782826102a1565b50505061009c3261007c6100a160201b60201c565b61008a9060ff16600a610454565b61009790620f4240610466565b6100a6565b610490565b601290565b6001600160a01b0382166100d45760405163ec442f0560e01b81525f60048201526024015b60405180910390fd5b6100df5f83836100e3565b5050565b6001600160a01b03831661010d578060025f828254610102919061047d565b9091555061017d9050565b6001600160a01b0383165f908152602081905260409020548181101561015f5760405163391434e360e21b81526001600160a01b038516600482015260248101829052604481018390526064016100cb565b6001600160a01b0384165f9081526020819052604090209082900390555b6001600160a01b038216610199576002805482900390556101b7565b6001600160a01b0382165f9081526020819052604090208054820190555b816001600160a01b0316836001600160a01b03167fddf252ad1be2c89b69c2b068fc378daa952ba7f163c4a11628f55a4df523b3ef836040516101fc91815260200190565b60405180910390a3505050565b634e487b7160e01b5f52604160045260245ffd5b600181811c9082168061023157607f821691505b60208210810361024f57634e487b7160e01b5f52602260045260245ffd5b50919050565b601f82111561029c57805f5260205f20601f840160051c8101602085101561027a5750805b601f840160051c820191505b81811015610299575f8155600101610286565b50505b505050565b81516001600160401b038111156102ba576102ba610209565b6102ce816102c8845461021d565b84610255565b6020601f821160018114610300575f83156102e95750848201515b5f19600385901b1c1916600184901b178455610299565b5f84815260208120601f198516915b8281101561032f578785015182556020948501946001909201910161030f565b508482101561034c57868401515f19600387901b60f8161c191681555b50505050600190811b01905550565b634e487b7160e01b5f52601160045260245ffd5b6001815b60018411156103aa5780850481111561038e5761038e61035b565b600184161561039c57908102905b60019390931c928002610373565b935093915050565b5f826103c05750600161044e565b816103cc57505f61044e565b81600181146103e257600281146103ec57610408565b600191505061044e565b60ff8411156103fd576103fd61035b565b50506001821b61044e565b5060208310610133831016604e8410600b841016171561042b575081810a61044e565b6104375f19848461036f565b805f190482111561044a5761044a61035b565b0290505b92915050565b5f61045f83836103b2565b9392505050565b808202811582820484141761044e5761044e61035b565b8082018082111561044e5761044e61035b565b6107458061049d5f395ff3fe608060405234801561000f575f80fd5b506004361061009b575f3560e01c806340c10f191161006357806340c10f191461011457806370a082311461012957806395d89b4114610151578063a9059cbb14610159578063dd62ed3e1461016c575f80fd5b806306fdde031461009f578063095ea7b3146100bd57806318160ddd146100e057806323b872dd146100f2578063313ce56714610105575b5f80fd5b6100a76101a4565b6040516100b491906105b5565b60405180910390f35b6100d06100cb366004610605565b610234565b60405190151581526020016100b4565b6002545b6040519081526020016100b4565b6100d061010036600461062d565b61024d565b604051601281526020016100b4565b610127610122366004610605565b610270565b005b6100e4610137366004610667565b6001600160a01b03165f9081526020819052604090205490565b6100a761027e565b6100d0610167366004610605565b61028d565b6100e461017a366004610687565b6001600160a01b039182165f90815260016020908152604080832093909416825291909152205490565b6060600380546101b3906106b8565b80601f01602080910402602001604051908101604052809291908181526020018280546101df906106b8565b801561022a5780601f106102015761010080835404028352916020019161022a565b820191905f5260205f20905b81548152906001019060200180831161020d57829003601f168201915b5050505050905090565b5f3361024181858561029a565b60019150505b92915050565b5f3361025a8582856102ac565b61026585858561032c565b506001949350505050565b61027a8282610389565b5050565b6060600480546101b3906106b8565b5f3361024181858561032c565b6102a783838360016103bd565b505050565b6001600160a01b038381165f908152600160209081526040808320938616835292905220545f198114610326578181101561031857604051637dc7a0d960e11b81526001600160a01b038416600482015260248101829052604481018390526064015b60405180910390fd5b61032684848484035f6103bd565b50505050565b6001600160a01b03831661035557604051634b637e8f60e11b81525f600482015260240161030f565b6001600160a01b03821661037e5760405163ec442f0560e01b81525f600482015260240161030f565b6102a783838361048f565b6001600160a01b0382166103b25760405163ec442f0560e01b81525f600482015260240161030f565b61027a5f838361048f565b6001600160a01b0384166103e65760405163e602df0560e01b81525f600482015260240161030f565b6001600160a01b03831661040f57604051634a1406b160e11b81525f600482015260240161030f565b6001600160a01b038085165f908152600160209081526040808320938716835292905220829055801561032657826001600160a01b0316846001600160a01b03167f8c5be1e5ebec7d5bd14f71427d1e84f3dd0314c0f7b2291e5b200ac8c7c3b9258460405161048191815260200190565b60405180910390a350505050565b6001600160a01b0383166104b9578060025f8282546104ae91906106f0565b909155506105299050565b6001600160a01b0383165f908152602081905260409020548181101561050b5760405163391434e360e21b81526001600160a01b0385166004820152602481018290526044810183905260640161030f565b6001600160a01b0384165f9081526020819052604090209082900390555b6001600160a01b03821661054557600280548290039055610563565b6001600160a01b0382165f9081526020819052604090208054820190555b816001600160a01b0316836001600160a01b03167fddf252ad1be2c89b69c2b068fc378daa952ba7f163c4a11628f55a4df523b3ef836040516105a891815260200190565b60405180910390a3505050565b602081525f82518060208401528060208501604085015e5f604082850101526040601f19601f83011684010191505092915050565b80356001600160a01b0381168114610600575f80fd5b919050565b5f8060408385031215610616575f80fd5b61061f836105ea565b946020939093013593505050565b5f805f6060848603121561063f575f80fd5b610648846105ea565b9250610656602085016105ea565b929592945050506040919091013590565b5f60208284031215610677575f80fd5b610680826105ea565b9392505050565b5f8060408385031215610698575f80fd5b6106a1836105ea565b91506106af602084016105ea565b90509250929050565b600181811c908216806106cc57607f821691505b6020821081036106ea57634e487b7160e01b5f52602260045260245ffd5b50919050565b8082018082111561024757634e487b7160e01b5f52601160045260245ffdfea26469706673582212209d58dcba75099f4110c33dd5dd76c2e5c1f26a64115f4a4f432c05b8da18f14464736f6c634300081a0033",
        "nonce": "0x1310",
        "chainId": "0x14a34"
      },
      "additionalContracts": [],
      "isFixedGasLimit": false
    },
    {
      "hash": "0x1da9e667d2673780ce14c59202fb3329cddef81bc27c0d7b872cb75e9b645bbd",
      "transactionType": "CREATE2",
      "contractName": "Implementation",
      "contractAddress": "0x3936D9C1296D6d6BDcDa11cf7a6d45b738724440",
      "function": null,
      "arguments": null,
      "transaction": {
        "from": "0xf39Fd6e51aad88F6F4ce6aB8827279cffFb92266",
        "to": "0x4e59b44847b379578588920cA78FbF26c0B4956C",
        "gas": "0x86c48",
        "value": "0x0",
        "input": "0x0000000000000000000000000000000000000000000000000000000000001bae6080604052348015600e575f80fd5b5061063e8061001c5f395ff3fe608060405234801561000f575f80fd5b506004361061009b575f3560e01c80639f063efc116100635780639f063efc146101ab578063a910f80f146101ce578063b47b2fb1146101ee578063b6a8b0fa14610233578063e1b4af6914610253575f80fd5b806321d0ee701461009f578063259982e5146100dc5780633440d820146100fb578063575e24b41461011a5780636c2bbe7e14610168575b5f80fd5b6100be6100ad3660046102f5565b63021d0ee760e41b95945050505050565b6040516001600160e01b031990911681526020015b60405180910390f35b6100be6100ea3660046102f5565b63259982e560e01b95945050505050565b6100be61010936600461036c565b6301a206c160e51b95945050505050565b61013d6101283660046103d6565b6315d7892d60e21b5f80955095509592505050565b604080516001600160e01b03199094168452602084019290925262ffffff16908201526060016100d3565b61018b610176366004610430565b633615df3f60e11b5f97509795505050505050565b604080516001600160e01b031990931683526020830191909152016100d3565b61018b6101b9366004610430565b6327c18fbf60e21b5f97509795505050505050565b6100be6101dc3660046104bb565b63a910f80f60e01b9695505050505050565b6102106101fc36600461054b565b63b47b2fb160e01b5f965096945050505050565b604080516001600160e01b03199093168352600f9190910b6020830152016100d3565b6100be6102413660046105ae565b635b54587d60e11b9695505050505050565b6100be6102613660046105ae565b63e1b4af6960e01b9695505050505050565b6001600160a01b0381168114610287575f80fd5b50565b5f60a0828403121561029a575f80fd5b50919050565b5f6080828403121561029a575f80fd5b5f8083601f8401126102c0575f80fd5b50813567ffffffffffffffff8111156102d7575f80fd5b6020830191508360208285010111156102ee575f80fd5b9250929050565b5f805f805f610160868803121561030a575f80fd5b853561031581610273565b9450610324876020880161028a565b93506103338760c088016102a0565b925061014086013567ffffffffffffffff81111561034f575f80fd5b61035b888289016102b0565b969995985093965092949392505050565b5f805f805f6101008688031215610381575f80fd5b853561038c81610273565b945061039b876020880161028a565b935060c08601356103ab81610273565b925060e086013567ffffffffffffffff81111561034f575f80fd5b5f6060828403121561029a575f80fd5b5f805f805f61014086880312156103eb575f80fd5b85356103f681610273565b9450610405876020880161028a565b93506104148760c088016103c6565b925061012086013567ffffffffffffffff81111561034f575f80fd5b5f805f805f805f6101a0888a031215610447575f80fd5b873561045281610273565b96506104618960208a0161028a565b95506104708960c08a016102a0565b94506101408801359350610160880135925061018088013567ffffffffffffffff81111561049c575f80fd5b6104a88a828b016102b0565b989b979a50959850939692959293505050565b5f805f805f8061012087890312156104d1575f80fd5b86356104dc81610273565b95506104eb886020890161028a565b945060c08701356104fb81610273565b935060e0870135600281900b8114610511575f80fd5b925061010087013567ffffffffffffffff81111561052d575f80fd5b61053989828a016102b0565b979a9699509497509295939492505050565b5f805f805f806101608789031215610561575f80fd5b863561056c81610273565b955061057b886020890161028a565b945061058a8860c089016103c6565b9350610120870135925061014087013567ffffffffffffffff81111561052d575f80fd5b5f805f805f8061012087890312156105c4575f80fd5b86356105cf81610273565b95506105de886020890161028a565b945060c0870135935060e0870135925061010087013567ffffffffffffffff81111561052d575f80fdfea2646970667358221220c7a249fb7a805448bd24d20fabb58c67017f495d5da0052b683e9a75fc99772164736f6c634300081a0033",
        "nonce": "0x1311",
        "chainId": "0x14a34"
      },
      "additionalContracts": [],
      "isFixedGasLimit": false
    },
    {
      "hash": "0x52a9d6e98a657ccc6eeefb467c90e6738ab6a580e8d3110be33a0d140f96cf4b",
      "transactionType": "CREATE2",
      "contractName": "ProxyContract",
      "contractAddress": "0xB3c2A6269c96fD4eA333408FB0349372Fa743ffF",
      "function": null,
      "arguments": null,
      "transaction": {
        "from": "0xf39Fd6e51aad88F6F4ce6aB8827279cffFb92266",
        "to": "0x4e59b44847b379578588920cA78FbF26c0B4956C",
        "gas": "0x246f2",
        "value": "0x0",
        "input": "0x0000000000000000000000000000000000000000000000000000000000001a956080604052348015600e575f80fd5b5060fb8061001b5f395ff3fe608060405260043610601e575f3560e01c8063d784d42614602c576024565b36602457005b602a6063565b005b3480156036575f80fd5b50602a6042366004609a565b5f80546001600160a01b0319166001600160a01b0392909216919091179055565b6069606b565b565b6069607d5f546001600160a01b031690565b365f80375f80365f845af43d5f803e8080156096573d5ff35b3d5ffd5b5f6020828403121560a9575f80fd5b81356001600160a01b038116811460be575f80fd5b939250505056fea26469706673582212209c94a79ed77254c9aa47e8ce599ffff4053dd439b959489d3b3d24b3e343519c64736f6c634300081a0033",
        "nonce": "0x1312",
        "chainId": "0x14a34"
      },
      "additionalContracts": [],
      "isFixedGasLimit": false
    },
    {
      "hash": "0x0379f0300ad43742c94d02fef1c6bdc7a5866697873ff877721b92cbc27d59b8",
      "transactionType": "CALL",
      "contractName": "ProxyContract",
      "contractAddress": "0xB3c2A6269c96fD4eA333408FB0349372Fa743ffF",
      "function": "setImplementation(address)",
      "arguments": [
        "0x3936D9C1296D6d6BDcDa11cf7a6d45b738724440"
      ],
      "transaction": {
        "from": "0xf39Fd6e51aad88F6F4ce6aB8827279cffFb92266",
        "to": "0xB3c2A6269c96fD4eA333408FB0349372Fa743ffF",
        "gas": "0xec7d",
        "value": "0x0",
        "input": "0xd784d4260000000000000000000000003936d9c1296d6d6bdcda11cf7a6d45b738724440",
        "nonce": "0x1313",
        "chainId": "0x14a34"
      },
      "additionalContracts": [],
      "isFixedGasLimit": false
    },
    {
      "hash": "0xa11d4abf4b337dff13e7474480cb034fe0893edab02d93aa6455d1cecdf4ea69",
      "transactionType": "CALL",
      "contractName": null,
      "contractAddress": "0x39BF2eFF94201cfAA471932655404F63315147a4",
      "function": "initialize((address,address,uint24,int24,address),uint160,bytes)",
      "arguments": [
        "(0x363Af415717225D28e66Ef4943f35E17283D8726, 0xa9E674B9eF4F9162fb2A452548c1c7775bc357bf, 0, 60, 0xB3c2A6269c96fD4eA333408FB0349372Fa743ffF)",
        "79228162514264337593543950336",
        "0x"
      ],
      "transaction": {
        "from": "0xf39Fd6e51aad88F6F4ce6aB8827279cffFb92266",
        "to": "0x39BF2eFF94201cfAA471932655404F63315147a4",
        "gas": "0x162d9",
        "value": "0x0",
        "input": "0x695c5bf5000000000000000000000000363af415717225d28e66ef4943f35e17283d8726000000000000000000000000a9e674b9ef4f9162fb2a452548c1c7775bc357bf0000000000000000000000000000000000000000000000000000000000000000000000000000000000000000000000000000000000000000000000000000003c000000000000000000000000b3c2a6269c96fd4ea333408fb0349372fa743fff000000000000000000000000000000000000000100000000000000000000000000000000000000000000000000000000000000000000000000000000000000e00000000000000000000000000000000000000000000000000000000000000000",
        "nonce": "0x1314",
        "chainId": "0x14a34"
      },
      "additionalContracts": [],
      "isFixedGasLimit": false
    }
  ],
  "receipts": [
    {
      "status": "0x1",
      "cumulativeGasUsed": "0x14175a",
      "logs": [
        {
          "address": "0x363Af415717225D28e66Ef4943f35E17283D8726",
          "topics": [
            "0xddf252ad1be2c89b69c2b068fc378daa952ba7f163c4a11628f55a4df523b3ef",
            "0x0000000000000000000000000000000000000000000000000000000000000000",
            "0x000000000000000000000000f39fd6e51aad88f6f4ce6ab8827279cfffb92266"
          ],
          "data": "0x00000000000000000000000000000000000000000000d3c21bcecceda1000000",
          "blockHash": "0x326d8141bfeba60b3acc009b00363e8a94090b71148b086b78b5cefe168f035f",
          "blockNumber": "0xf6d07c",
          "transactionHash": "0xbd013eedc0dc8dd02a1a793bc67ed71f987fcdcc0e86ac2e9854999f781ee2b6",
          "transactionIndex": "0x8",
          "logIndex": "0x9",
          "removed": false
        }
      ],
      "logsBloom": "0x00000000000000000000000000000000000000000000000000000000000000000000000000000000000000000000000000000000000000000000000000000000000000000000020000000008000000000000000000000000000000000000000000000000020000000000000100000800000000000000000000000010000000000000000000000000000000000000000000000000000000000000000000000000000000000000000000000000000000000000000000000000000000000000000000000002000001200000000000000000000000002000000000000000000020000000000000000000000000000000000000000000000000000000000000080000",
      "type": "0x2",
      "transactionHash": "0xbd013eedc0dc8dd02a1a793bc67ed71f987fcdcc0e86ac2e9854999f781ee2b6",
      "transactionIndex": "0x8",
      "blockHash": "0x326d8141bfeba60b3acc009b00363e8a94090b71148b086b78b5cefe168f035f",
      "blockNumber": "0xf6d07c",
      "gasUsed": "0x8a31c",
      "effectiveGasPrice": "0xf434d",
      "from": "0xf39Fd6e51aad88F6F4ce6aB8827279cffFb92266",
      "to": null,
      "contractAddress": "0x363Af415717225D28e66Ef4943f35E17283D8726",
      "l1BaseFeeScalar": "0x44d",
      "l1BlobBaseFee": "0x1",
      "l1BlobBaseFeeScalar": "0xa118b",
      "l1Fee": "0x142540a41487",
      "l1GasPrice": "0x9f82cf2467",
      "l1GasUsed": "0x72b5"
    },
    {
      "status": "0x1",
      "cumulativeGasUsed": "0x1cba76",
      "logs": [
        {
          "address": "0xa9E674B9eF4F9162fb2A452548c1c7775bc357bf",
          "topics": [
            "0xddf252ad1be2c89b69c2b068fc378daa952ba7f163c4a11628f55a4df523b3ef",
            "0x0000000000000000000000000000000000000000000000000000000000000000",
            "0x000000000000000000000000f39fd6e51aad88f6f4ce6ab8827279cfffb92266"
          ],
          "data": "0x00000000000000000000000000000000000000000000d3c21bcecceda1000000",
          "blockHash": "0x326d8141bfeba60b3acc009b00363e8a94090b71148b086b78b5cefe168f035f",
          "blockNumber": "0xf6d07c",
          "transactionHash": "0x23381ecbdbdf9dc6b818a5b06f61c5732a92f20e6ff1db6eedb3ec3bd1c07aae",
          "transactionIndex": "0x9",
          "logIndex": "0xa",
          "removed": false
        }
      ],
      "logsBloom": "0x00000000000000000000000000000000000000000000000000000000000000000000000000000000000000000000000000000000008000000000000000000000000000000000000000000008000000000000000000000000000000000000000000000000020000000000000100000800000000000000000000100010000000000000000000000000000000000000000000000000000000000000000000000000000000000000000000000000000000000000000000000000000000000000000000000002000000200000000000000000000000002000000000000000000020000000000000000000000000000000000000000000000000000000000000000000",
      "type": "0x2",
      "transactionHash": "0x23381ecbdbdf9dc6b818a5b06f61c5732a92f20e6ff1db6eedb3ec3bd1c07aae",
      "transactionIndex": "0x9",
      "blockHash": "0x326d8141bfeba60b3acc009b00363e8a94090b71148b086b78b5cefe168f035f",
      "blockNumber": "0xf6d07c",
      "gasUsed": "0x8a31c",
      "effectiveGasPrice": "0xf434d",
      "from": "0xf39Fd6e51aad88F6F4ce6aB8827279cffFb92266",
      "to": null,
      "contractAddress": "0xa9E674B9eF4F9162fb2A452548c1c7775bc357bf",
      "l1BaseFeeScalar": "0x44d",
      "l1BlobBaseFee": "0x1",
      "l1BlobBaseFeeScalar": "0xa118b",
      "l1Fee": "0x142540a41487",
      "l1GasPrice": "0x9f82cf2467",
      "l1GasUsed": "0x72b5"
    },
    {
      "status": "0x1",
      "cumulativeGasUsed": "0x88334",
      "logs": [],
      "logsBloom": "0x00000000000000000000000000000000000000000000000000000000000000000000000000000000000000000000000000000000000000000000000000000000000000000000000000000000000000000000000000000000000000000000000000000000000000000000000000000000000000000000000000000000000000000000000000000000000000000000000000000000000000000000000000000000000000000000000000000000000000000000000000000000000000000000000000000000000000000000000000000000000000000000000000000000000000000000000000000000000000000000000000000000000000000000000000000000",
      "type": "0x2",
      "transactionHash": "0x1da9e667d2673780ce14c59202fb3329cddef81bc27c0d7b872cb75e9b645bbd",
      "transactionIndex": "0x2",
      "blockHash": "0x2d03014b6ece8ca1565344db7cddba73d36e3026d2f83bdffd50755cc0468823",
      "blockNumber": "0xf6d07d",
      "gasUsed": "0x6191d",
      "effectiveGasPrice": "0xf434d",
      "from": "0xf39Fd6e51aad88F6F4ce6aB8827279cffFb92266",
      "to": "0x4e59b44847b379578588920cA78FbF26c0B4956C",
      "contractAddress": null,
      "l1BaseFeeScalar": "0x44d",
      "l1BlobBaseFee": "0x1",
      "l1BlobBaseFeeScalar": "0xa118b",
      "l1Fee": "0xb4fc5b2b60a",
      "l1GasPrice": "0xa1ba1aa098",
      "l1GasUsed": "0x3f86"
    },
    {
      "status": "0x1",
      "cumulativeGasUsed": "0xade8e",
      "logs": [],
      "logsBloom": "0x00000000000000000000000000000000000000000000000000000000000000000000000000000000000000000000000000000000000000000000000000000000000000000000000000000000000000000000000000000000000000000000000000000000000000000000000000000000000000000000000000000000000000000000000000000000000000000000000000000000000000000000000000000000000000000000000000000000000000000000000000000000000000000000000000000000000000000000000000000000000000000000000000000000000000000000000000000000000000000000000000000000000000000000000000000000",
      "type": "0x2",
      "transactionHash": "0x52a9d6e98a657ccc6eeefb467c90e6738ab6a580e8d3110be33a0d140f96cf4b",
      "transactionIndex": "0x4",
      "blockHash": "0x2d03014b6ece8ca1565344db7cddba73d36e3026d2f83bdffd50755cc0468823",
      "blockNumber": "0xf6d07d",
      "gasUsed": "0x1a60c",
      "effectiveGasPrice": "0xf434d",
      "from": "0xf39Fd6e51aad88F6F4ce6aB8827279cffFb92266",
      "to": "0x4e59b44847b379578588920cA78FbF26c0B4956C",
      "contractAddress": null,
      "l1BaseFeeScalar": "0x44d",
      "l1BlobBaseFee": "0x1",
      "l1BlobBaseFeeScalar": "0xa118b",
      "l1Fee": "0x3176e0de167",
      "l1GasPrice": "0xa1ba1aa098",
      "l1GasUsed": "0x115c"
    },
    {
      "status": "0x1",
      "cumulativeGasUsed": "0xb89c5",
      "logs": [],
      "logsBloom": "0x00000000000000000000000000000000000000000000000000000000000000000000000000000000000000000000000000000000000000000000000000000000000000000000000000000000000000000000000000000000000000000000000000000000000000000000000000000000000000000000000000000000000000000000000000000000000000000000000000000000000000000000000000000000000000000000000000000000000000000000000000000000000000000000000000000000000000000000000000000000000000000000000000000000000000000000000000000000000000000000000000000000000000000000000000000000",
      "type": "0x2",
      "transactionHash": "0x0379f0300ad43742c94d02fef1c6bdc7a5866697873ff877721b92cbc27d59b8",
      "transactionIndex": "0x5",
      "blockHash": "0x2d03014b6ece8ca1565344db7cddba73d36e3026d2f83bdffd50755cc0468823",
      "blockNumber": "0xf6d07d",
      "gasUsed": "0xab37",
      "effectiveGasPrice": "0xf434d",
      "from": "0xf39Fd6e51aad88F6F4ce6aB8827279cffFb92266",
      "to": "0xB3c2A6269c96fD4eA333408FB0349372Fa743ffF",
      "contractAddress": null,
      "l1BaseFeeScalar": "0x44d",
      "l1BlobBaseFee": "0x1",
      "l1BlobBaseFeeScalar": "0xa118b",
      "l1Fee": "0x11ce5f24971",
      "l1GasPrice": "0xa1ba1aa098",
      "l1GasUsed": "0x640"
    },
    {
      "status": "0x1",
      "cumulativeGasUsed": "0xc8aad",
      "logs": [
        {
          "address": "0x39BF2eFF94201cfAA471932655404F63315147a4",
          "topics": [
            "0xdd466e674ea557f56295e2d0218a125ea4b4f0f6f3307b95f85e6110838d6438",
            "0xf47e2db7ba4094a2be366ee76ba27c58194c5d03f0e83b38291738d3c46e2742",
            "0x000000000000000000000000363af415717225d28e66ef4943f35e17283d8726",
            "0x000000000000000000000000a9e674b9ef4f9162fb2a452548c1c7775bc357bf"
          ],
          "data": "0x0000000000000000000000000000000000000000000000000000000000000000000000000000000000000000000000000000000000000000000000000000003c000000000000000000000000b3c2a6269c96fd4ea333408fb0349372fa743fff00000000000000000000000000000000000000010000000000000000000000000000000000000000000000000000000000000000000000000000000000000000",
          "blockHash": "0x2d03014b6ece8ca1565344db7cddba73d36e3026d2f83bdffd50755cc0468823",
          "blockNumber": "0xf6d07d",
          "transactionHash": "0xa11d4abf4b337dff13e7474480cb034fe0893edab02d93aa6455d1cecdf4ea69",
          "transactionIndex": "0x6",
          "logIndex": "0x1",
          "removed": false
        }
      ],
      "logsBloom": "0x00000000000000000000000000000000000000000000000000000000000000000000000000000000000000000000000000000000000000000004000000000000000000000000000000000000000000000000000000000000000000000000000000008000000000000001000000000000000000000000000800000010000000000000000000000008000000000001000000000001000000000000000000200000000001000000000000000000000000000000000000000000000002000040080000000000000000000000000000000000000000000000000000000000000000000000000010000000000000000020000000000000000000000000000000000000",
      "type": "0x2",
      "transactionHash": "0xa11d4abf4b337dff13e7474480cb034fe0893edab02d93aa6455d1cecdf4ea69",
      "transactionIndex": "0x6",
      "blockHash": "0x2d03014b6ece8ca1565344db7cddba73d36e3026d2f83bdffd50755cc0468823",
      "blockNumber": "0xf6d07d",
      "gasUsed": "0x100e8",
      "effectiveGasPrice": "0xf434d",
      "from": "0xf39Fd6e51aad88F6F4ce6aB8827279cffFb92266",
      "to": "0x39BF2eFF94201cfAA471932655404F63315147a4",
      "contractAddress": null,
      "l1BaseFeeScalar": "0x44d",
      "l1BlobBaseFee": "0x1",
      "l1BlobBaseFeeScalar": "0xa118b",
      "l1Fee": "0x19a1f42a3f8",
      "l1GasPrice": "0xa1ba1aa098",
      "l1GasUsed": "0x8ff"
    }
  ],
  "libraries": [],
  "pending": [],
  "returns": {},
  "timestamp": 1728118753,
  "chain": 84532,
  "commit": "b48dd4b"
}